:1000000019C033C032C031C030C02FC02FC02DC086
:1000100053C02BC075C029C028C081C026C025C0D0
:1000200024C0B3C222C021C020C01FC01EC01DC03A
:100030001CC01BC011241FBECFEFCDBFDFE3DEBF4E
:100040001EE3A0E0BEE3EEE7FDE102C005900D92E5
:10005000A836B107D9F72EE3A8E6BEE301C01D928A
:10006000AB3CB207E1F775D081CECACF1F920F9299
:100070000FB60F9211242F933F934F935F936F937B
:100080007F938F939F93AF93BF93EF93FF935CD234
:1000900082E080934301FF91EF91BF91AF919F91D7
:1000A0008F917F916F915F914F913F912F910F9021
:1000B0000FBE0F901F9018951F920F920FB60F92C0
:1000C00011248F939F938091683E811102C00D9AF5
:1000D0000C9A90916B3E891708F00D9890916C3EA8
:1000E000891708F00C988F5F8093683E81E08093B9
:1000F0000B0A9F918F910F900FBE0F901F90189534
:100100001F920F920FB60F9211248F9380E180936C
:100110000B0A8F910F900FBE0F901F9018951F9292
:100120000F920FB60F9211248F939F938091693E87
:1001300090916A3E01968093693E90936A3E81E079
:100140008093460A9F918F910F900FBE0F901F9042
:10015000189569D27FD178940C9A2FEF84E39CE0B4
:10016000215080409040E1F700C000000D9A2C9A89
:100170002FE38DE093E0215080409040E1F700C0F4
:1001800000002C982FE38DE093E0215080409040B8
:10019000E1F700C000002C9A2FE38DE093E021509E
:1001A00080409040E1F700C000002C982FE38DE0E4
:1001B00093E0215080409040E1F700C000002C9A6D
:1001C0002FE38DE093E0215080409040E1F700C0A4
:1001D00000002C982FE38DE093E021508040904068
:1001E000E1F700C000003ED28EE080936B3E80932A
:1001F0006C3E412C00E010E0D0E0212C312C552445
:100200005394612CC0E088EB982E90E8E92EF12CF5
:1002100020E8722E3EE0832E44EFC42EDD24D394DA
:1002200052E0A52EB12C01116FC0411073C0111105
:1002300044C031100BC031DDB601D4DC892B31F460
:100240002CDDB501CFDC682E332433948091693ED8
:1002500090916A3E62E370E0B1DC029708F05AC008
:10026000332009F457C0862D90E0552091F021E00D
:100270002C0FEC2FF0E0E059F2463081FC01E559FB
:10028000F14C308355245394283009F4512CC22F5B
:1002900041C0C150EC2FF0E0E059F2462081FC0152
:1002A000E559F14C2083C11135C080926B3E80929C
:1002B0006C3E312C552453942DC0113099F4DB340D
:1002C00009F5211008C080926B3E70926C3ED0E020
:1002D000222423941FC070926B3E80926C3ED0E02B
:1002E000212C18C01230B1F4D63961F4D6DCB70134
:1002F00079DC80936B3ED1DCB70174DC80936C3E7B
:10030000D0E008C0DF5F06C0411004C090926B3E91
:1003100090926C3EECD080916E3E813009F03FC0EF
:1003200080E090E023D187FF08C087EA91E601973B
:10033000F1F700C0000001E01CC00023D1F0113033
:1003400029F090F0123029F000E013C000E012E034
:1003500010C080926B3E80926C3E00E010E055240D
:100360005394612CC0E005C000E011E05524539483
:10037000612C81E090E0FAD087FF09C02C9A9FEFB2
:1003800090936B3E90936C3E4424439408C0442069
:1003900031F02C9880926B3E80926C3E412C87E825
:1003A00093E10197F1F700C000003DCFE0EAFEE3E2
:1003B000808182608083089587FF02C081E007C04A
:1003C00086FD03C010926D3E08958F708E5F8093FE
:1003D0006D3E08958AE99EE3F9DA60E070E080E519
:1003E0009EE362DB60E070E080E59EE37CDB61E041
:1003F00070E080E59EE358DB61E070E080E59EE31D
:1004000072DB40E95EE360E080E29EE3B9D145E95A
:100410005EE361E080E29EE3B3C1E091203EF091B3
:10042000213E808187FF08C0E0919E3EF0919F3E73
:10043000808184608083089581E080936E3E08957A
:100440009091410192FDFCCF90E080934A019093FE
:100450004B01089580E2F4DFE6E1F4E08081877FDC
:1004600080838081887F84608083E7E1F4E08081FD
:10047000877F80838081887F84608083E0EAFEE3D9
:1004800010828CE19EE38183928386E19EE38383E5
:1004900094838EE09EE38583968382E19EE3878347
:1004A000908784E09EE3818792878AE09EE383873A
:1004B000948780E39BE0858796878AEE91E0878723
:1004C000908B8CED91E0818B928B86ED91E0838B0C
:1004D000948B158A168A8DE092E0878B908FCF01DE
:1004E000C6D6C0D680939E3E90939F3E0895E091DD
:1004F0009E3EF0919F3E808180FF0BC080E015D72B
:10050000811107C0E0919E3EF0919F3E80818E7FD9
:100510008083E0919E3EF0919F3E808181FF13C0D9
:1005200053D7811102C058D702C080E845DFE0915F
:100530009E3EF0919F3E808182FD02C08D7F02C071
:10054000897F81608083089580918C3E8F5F8431A4
:1005500018F480938C3E089510928C3E8091A03EBA
:1005600081608093A03E84E190E0FFC026E0AC0172
:10057000249FC001259F900D1124E091243EF0910D
:10058000253EE80FF91F808108951F920F920FB644
:100590000F9211242F933F934F935F936F937F9309
:1005A0008F939F93AF93BF93EF93FF93DDDAFF9108
:1005B000EF91BF91AF919F918F917F916F915F91DB
:1005C0004F913F912F910F900FBE0F901F90189554
:1005D00082E08093890080E0089540E068ED81E644
:1005E00090E02ED080E00895789480E00895E0E1D6
:1005F000F4E0808188608193E83184E0F807C9F7EE
:10060000E0E3F4E0808188608193E83384E0F807D8
:10061000C9F7E0E5F4E0808188608193E83584E003
:10062000F807C9F70895E3DF049A0C98059A0D9826
:10063000249A2C98D2DF08D023D0D6DF11D0C8CF8F
:10064000FC0164BF40830895809141018111FCCF7A
:1006500081E88093400182E08093420180E0089528
:1006600080E00895E0E0FAE080E1818381E1828723
:100670008FEF90E086A397A381E0808380E00895C8
:10068000E0E4FAE080E197E28487958781E0858362
:1006900083E0808380E00895CF92DF92FF920F93F2
:1006A0001F93CF93DF93EC01AE81BF81EB01CC0FA1
:1006B000DD1FC60FD71FCA0FDB1FFA80FC01448164
:1006C0005581E6E0E69F9001E79F300D11248A01F5
:1006D000020F131FF80122813381F9012181328138
:1006E000F80104811581201B310BE8812E1B310993
:1006F000EC01EA81FB8100811181FA0140E050E0C8
:100700004017510739F146175707F9F012968C91A7
:100710001297F8121AC0808185588230E8F0C480A0
:10072000D58082819381EC0189819A81C816D9068E
:1007300060F48C199D09CC91D0E0C817D90728F432
:100740008C1B9D0B2817390738F04F5F5F4F1396AE
:100750003696D6CF80E001C081E0DF91CF911F9126
:100760000F91FF90DF90CF90089520916F3E3091D0
:10077000703E820F931F80936F3E9093703E08955A
:100780000097D9F041155105C1F026E0629FB001F4
:100790001124DC011496ED91FC911597E60FF71FDB
:1007A00021E0208314968D919C911597FC01E60F12
:1007B000F71F4283538380E008958BE008952F92C2
:1007C0003F924F925F926F927F928F929F92AF92E1
:1007D000BF92CF92DF92EF92FF920F931F93CF932E
:1007E000DF93009709F47BC3EC01A12CB12C812C81
:1007F000912C212CD12C33E0C32E45E8642E56E8F1
:10080000752E67E0362E72E0472EE8E05E2EEA8114
:10081000FB81808191818816990608F0A3C175013A
:10082000EE0CFF1C0C811D810E0D1F1DD8018C913B
:10083000843009F4A1C038F4823001F108F049C0D5
:10084000813059F088C1853809F4C0C0863809F470
:10085000F4C0873009F07FC135C1D8011296ED91FF
:10086000FC91139780818E7109F067C14C928C8145
:100870009D81FC01EE0DFF1D51825FC1F8012181B8
:10088000222329F10280F381E02D253020F081819F
:100890009281D8010EC0D80114968D919C91159724
:1008A000418152818417950769F04817590730F440
:1008B000019714968D939C93159704C00196F801A7
:1008C000848395832150D80111962C9336C1F80169
:1008D0002FC1D80114962D913C91159712968D91A8
:1008E0009C911397DC0111964D915C9112972417FE
:1008F000350709F430C18E819F8142175307E0F418
:10090000241B350BDC01AA0DBB1D8C9190E00580EA
:1009100002C0959587950A94E2F799272817390719
:1009200008F419C18481882309F415C1F8013082C3
:10093000EA81FB81248119C0FC01EA0DFB1D421BE9
:10094000530B808190E04817590708F404C1828155
:10095000882329F0B401CE019FDE8111FCC0E4E0C0
:10096000D801EC93EA81FB8122818C819D81FC017D
:10097000EE0DFF1D2183E1C0D80114962D913C910D
:1009800015971296ED91FC911397818192818217B0
:10099000930708F4D6C0EE81FF81EA0DFB1D821B90
:1009A000930B208130E02817390708F0AEC0828110
:1009B000882329F0B401CE016FDE8111CCC0F8018B
:1009C0008181882309F467C08150B6C0A881B981AC
:1009D000808513968C93EC81FD81EE0DFF1D448183
:1009E0005581A281B38111968D919C9112978417A4
:1009F0009507C0F0AE81BF81AA0DBB1D6C91262F5B
:100A000030E011967C917F5F02C0359527957A95ED
:100A1000E2F7841B950B621B262F30E0281739075D
:100A200008F497C07082EA81FB8122818C819D81CC
:100A3000FC01EE0DFF1D218342C0D80114966D917B
:100A40007C9115971296ED91FC911397218132813B
:100A50002617370758F411968C911197811102C00F
:100A6000CC9277C08150F801818373C0EE81FF8101
:100A7000EA0DFB1D8081482F50E091819F5F02C0ED
:100A8000559547959A95E2F7261B370B841B90E006
:100A90008217930760F4D8016C92EA81FB8123816D
:100AA0008C819D81FC01EE0DFF1D218352C0F80158
:100AB0008181811102C0C0824CC081508183222477
:100AC00023943BC0D80114962D913C911597129612
:100AD0008D919C911397DC0111968D919C911297A9
:100AE0008217930768F5281B390BAE81BF81AA0DC9
:100AF000BB1D8C9190E0058002C0959587950A9466
:100B0000E2F799272817390718F4F801C0821AC0AC
:100B1000D80111968C91119781110CC081E08C93B2
:100B20008C819D81FC01EE0DFF1D0280F381E02D83
:100B3000C08211C08150F8018183DD24D3940BC0A1
:100B4000D801CC928C819D81FC01EE0DFF1D11829C
:100B500002C022242394BFEF8B1A9B0AE3E0AE0E5F
:100B6000B11C55CEE881F981808187FF23C040E028
:100B700050E020E030E0EA81FB81808191812817FC
:100B8000390798F4EC81FD81E40FF51FA281B38150
:100B90008C9180FD05C09081977F11F081608C93CE
:100BA0002F5F3F4F4A5F5F4FE6CFE881F981808139
:100BB0008F778083D11007C0E881F98121106FC041
:100BC00080818E7F6EC0EA81FB8181858823A1F3BD
:100BD000E881F981808180688083EA81FB81818559
:100BE000813051F740E050E020E030E096E0D92E2F
:100BF000EA81FB816081718126173707E8F60C8155
:100C00001D81FA01EE0FFF1FE00FF11F8081982F69
:100C1000977FA1F1853811F08330B1F5EE80FF8028
:100C2000D701A40FB51F1296BC90BB2039F180E00C
:100C300090E0C12C86179707F8F428173907D1F0F0
:100C4000D89ED001D99EB00D1124A00FB11FAC9138
:100C5000A43011F0A63871F4DC01AA0FBB1FA80F55
:100C6000B91FAE0DBF1D1296AC91BA1203C0CB01D5
:100C7000CC24C3940196DECFC11006C00280F3815C
:100C8000E02D80818E7F05C00280F381E02D808180
:100C9000816080832F5F3F4F4D5F5F4FA9CF808181
:100CA0008160808380916F3E9091703EE881F981F0
:100CB00021813281A90148535F4F4817590738F401
:100CC000821B930BAA24A394A3E0BA2E44C08217DC
:100CD000930710F080E004C1821B930B0197893CBD
:100CE0009105C0F3EFCF885C9109E881F9812181FA
:100CF000328128533F4F218332832381211196C0B3
:100D00002481222311F021502483E881F981258157
:100D1000222311F0215025838A809B80D4011696CE
:100D20002C91169721111BC08A809B80F40127818A
:100D3000211148C0EA81FB812381222361F020E058
:100D400030E0A0E0B0E0EA81FB8140815181A4174E
:100D5000B50708F46EC0893C910528F6BBCF088121
:100D60001981F80124812111DFCFED90FC9060E022
:100D700070E040E050E04E155F05F1F0EC81FD8140
:100D8000E60FF71F2081233011F0283081F42481F1
:100D90003581C280D380D6011196CD90DC90129718
:100DA0002C153D0520F42F5F3F4F248335834F5F83
:100DB0005F4F6A5F7F4FDFCFF4012681D801149621
:100DC0002C93B2CF08811981D80115962C9121114D
:100DD000B1CFE080F18060E070E040E050E04E157F
:100DE0005F05F1F0EC81FD81E60FF71F20812330D4
:100DF00011F0283081F424813581C280D380D6015E
:100E00001196CD90DC901297C216D30620F4215093
:100E10003109248335834F5F5F4F6A5F7F4FDFCF98
:100E2000F4012781D80115962C9384CF2150238378
:100E300081CFA901440F551FEC81FD81E40FF51FFF
:100E40006081653809F047C06181662319F06150FF
:100E5000618341C0A0826C817D81FB01E40FF51F9D
:100E60000280F381E02DB082EE81FF81E20FF31F5B
:100E7000D280DD2081F140E050E000E010E0EA8126
:100E8000FB81608171810617170728F5EE81FF81CC
:100E9000E40FF51F6281D61219C0BA01660F771FE1
:100EA000EC81FD814F01860E971EF401E280F380F4
:100EB000F701F080F0FE0AC0F401A082EC81FD8110
:100EC000E60FF71F0280F381E02DB0820F5F1F4F06
:100ED0004D5F5F4FD4CF11962D5F3F4F34CF8BE0E6
:100EE000DF91CF911F910F91FF90EF90DF90CF9006
:100EF000BF90AF909F908F907F906F905F904F903A
:100F00003F902F9008952F923F924F925F926F9251
:100F10007F928F929F92AF92BF92CF92DF92EF9289
:100F2000FF920F931F93CF93DF93CDB7DEB72C972C
:100F3000CDBFDEBF2C01009709F463C1DC0112961E
:100F40002D903C901397F1017180ED91FC9161809F
:100F5000D10116968C911697E72CF12CEB82FC822E
:100F6000262D30E0882309F4A9C08C90912C5701DC
:100F7000AA0CBB1C6901CC0CDD1CE12CF12C40E05F
:100F800050E000E010E00815190548F584819581CE
:100F90008E0D9F1DDC0111966D917C9112978281BF
:100FA00093818C0D9D1DDC018D919C918617970777
:100FB00028F4DB01A81BB90BCD0105C06817790720
:100FC00030F4861B970B4817590708F4AC010F5FE4
:100FD0001F4FB5E0EB0EF11CCA0CDB1CD4CFD101C6
:100FE00017968C91682F70E06417750708F057C04A
:100FF0000680F781E02DE20FF31F80818F5F8083F1
:10100000F20140815181A281B381FA01818146813F
:101010005781FA01E80FF11D908118968C9118976D
:1010200098134CC014960D911C911597D801A20FDE
:10103000B31F8C91882311F0815001C08FE0F8011B
:1010400061E070E040E050E0EB80FC804E155F0511
:1010500060F44217530729F09081981302C060E0B2
:1010600070E04F5F5F4F3196EFCF672B19F38C9392
:1010700080E090E0D2011296ED91FC9113974181AE
:1010800050E084179507D0F4D201ED91FC910680D1
:10109000F781E02DE80FF91F10820196EBCF8695BE
:1010A00090E04817590750F40680F781E02DE20FD1
:1010B000F31F8081882311F081508083F201028028
:1010C000F381E02DE983FA83EB80FC80EE0CFF1CBA
:1010D000EB82FC82B901660F771F6D837E83D72C6C
:1010E000D694D39440E050E020E030E0E12CF12CA5
:1010F0008D2D90E08F839887A981BA818C9190E0A3
:10110000E816F90608F068C0D201ED91FC91A481BF
:10111000B581BD01620F731F6B877C87DB018C91EA
:101120008C7109F04FC011966D917C91129782815C
:101130009381840F951FED81FE81E80FF91F608375
:101140007183A12CB12CC12CC714C0F5FC01EC0D8E
:10115000F11DEC0DF11D89879A8799249394812CB8
:10116000312C7314C9F0C31479F0A985BA850D9197
:101170001C91608171810617170711F4939404C0C4
:101180000617170708F48394339469857A856E5F90
:101190007F4F69877A87E5CF9D1458F48D1460F4EA
:1011A000692D70E0680D711DAF81B8856A177B07E6
:1011B0001CF0A080B180C72CC394C6CFEB85FC8502
:1011C000A182B282FFEFEF1AFF0A2B5F3F4F6B81C4
:1011D0007C81460F571F90CF6394671408F0612CF1
:1011E000E981FA81A281B38184819581FC01E60DB8
:1011F000F11D80818C93D201ED91FC91618280E0A0
:1012000001C08BE02C96CDBFDEBFDF91CF911F9147
:101210000F91FF90EF90DF90CF90BF90AF909F9095
:101220008F907F906F905F904F903F902F90089598
:1012300095E09093733EE091C53EF091C63E0188E3
:10124000F289E02D309709F00994FFCFE091C53E77
:10125000F091C63E0388F489E02D309709F0099497
:1012600080E4E6CF8091C53E9091C63E0895CF932D
:101270008093C53E9093C63E8091733E853039F091
:10128000823028F08091713E882371F140C0109225
:10129000713EC0E0A091C53EB091C63E8C2F90E05B
:1012A000880F991F1196ED91FC911297E80FF91F85
:1012B0000190F081E02D309729F317962D913C9104
:1012C0001897D901A80FB91F8D919C910995882372
:1012D00029F08091713E8F5F8093713ECF5F809146
:1012E000713E8823B9F2CECF82E08093733EE091C5
:1012F000C53EF091C63E0784F089E02D309711F08D
:10130000099508C085E08093733E81E001C08F5F3E
:101310008093713E8091713E882329F01092713E36
:1013200080E8CF9185CFCF9108951F93CF93DF931E
:10133000182FA091C53EB091C63E15962D913C91B7
:101340001697D0E0F901ED0FF11DED0FF11D808131
:101350009181892B11F0DF5FF5CF53968D919C9190
:101360005497892B49F1812F90E0880F991FF9013B
:10137000E80FF91F0190F081E02D3097E9F01B96FE
:101380002D913C911C97D901A80FB91F8D919C916B
:10139000009791F066E279E00995C82F811106C0A7
:1013A00083E08093733E1092723E03C082E080938C
:1013B000733E1D1720F001C0C2E082E839DF8C2F98
:1013C000DF91CF911F910895E091C53EF091C63E07
:1013D0000584F685E02D09941F93CF93DF931F9228
:1013E000CDB7DEB71982E091C53EF091C63E0588C3
:1013F000F689E02D309749F082E08093733ECE016C
:101400000196099583E08093733E8091713E81112E
:101410002CC01981111129C084E08093733EA091E2
:10142000C53EB091C63E8091723E90E0880F991FF4
:101430001396ED91FC911497E80FF91F0190F0813C
:10144000E02D19962D913C911A97309781F0D90192
:10145000A80FB91F8D919C91099581113DC0809174
:10146000723E8F5F8093723EDACF10E03CC01092E4
:10147000723EF901E10FF11DE10FF11D0190F081C4
:10148000E02D309759F00190F081E02D808187FFA9
:1014900003C09C9194609C931F5FEBCF1093723EAE
:1014A00082E08093733E5796ED91FC915897309768
:1014B00011F0099505C08091713E8F5F8093713E58
:1014C00010E08091713E882371F01092713E8091FE
:1014D000723E8064ADDE07C08091713E8F5F809365
:1014E000713E13E0EECF812F0F90DF91CF911F91CE
:1014F00008958091773E9091783EA091C73EB0913B
:10150000C83EED91FC9111974081518125E0289FC3
:10151000B001299F700D112420E030E08417950759
:10152000A8F41496ED91FC911597E20FF31FE60FC6
:10153000F71FE0812B5F3F4FE0FD02C00196EECF29
:101540008093773E9093783E80E008951092773EA6
:101550001092783E81E00895BC01E091C73EF09181
:10156000C83E86E0869F9001879F300D1124A2819E
:10157000B381A20FB31F11968C9180932A06A2818A
:10158000B381A20FB31F8C918093260695E0969F9E
:10159000A001979F500D1124A481B581A40FB51F00
:1015A00013968C9180931A06A481B581A40FB51F60
:1015B00014968C9180931B06A481B581A40FB51F4E
:1015C0008C9181FD9C9384819581DC01A40FB51FD2
:1015D0008C918C7169F4A281B381A20FB31F149610
:1015E000AC91A295AF70B0E0A858B2468C9101C002
:1015F0008FE380931C06A281B381A20FB31F1296C2
:101600008C918B3110F48C5F01C08FE180930506C3
:10161000A281B381A20FB31F15968C91809301060E
:10162000A281B381A20FB31F13968C9182958F7004
:101630008093190682819381FC01E20FF31F83815D
:101640008F7080618093020680911806836080937A
:10165000180681E88093000681E0809308060895CB
:101660003F924F925F926F927F928F929F92AF9232
:10167000BF92CF92DF92EF92FF920F931F93CF937F
:10168000DF938091763E882309F448C1A091C73E3C
:10169000B091C83EC090C93ED090CA3E00E010E074
:1016A00060E070E0E12CF12C80E033243394D1E849
:1016B0004D2E88248A94992493946D907C90119750
:1016C000F30120813181E216F30608F023C1E6011F
:1016D000299139916E011496ED91FC911597E60FC1
:1016E000F71F40814C7150E05695479556954795A8
:1016F0004115510521F041305105B9F002C1129652
:10170000CD91DC911397C00FD11F4C814F709D81FB
:10171000491710F4941B01C090E002C0369527953C
:101720009A95E2F721833283EDC012964D915C9138
:101730001397400F511FEA010D8002C0369527957F
:101740000A94E2F721833283A380B4802115D2E08A
:101750003D0720F02F5F314091E005C0A401421BFE
:10176000530B9A0190E0E3015A80D0E45D1205C06A
:1017700036952795992319F009C0992339F04FEF31
:10178000A416B40631F440828EE007C07724739427
:1017900001C0712C2A30310590F41496ED91FC9122
:1017A0001597E60FF71F908197FF30821496ED9101
:1017B000FC911597E60FF71FA382B482A3C0E50141
:1017C000CD2FDD27C295CF709C2FA50144275F70D8
:1017D000652EA501407F5527529542954F704527AC
:1017E0005F7045275A2D5F70A52EC43030F093707E
:1017F000D695C795D695C7959C0F71103CC050E8FB
:10180000550D523010F456E007C053E005C095174F
:1018100068F49F5F2F5C3109203D3105C0F706C099
:10182000CFE06C1649F0639425513109263131051A
:10183000B8F7DFE06D120EC0951720F49F5FD5E07A
:101840006D2E08C0CFE06C2E05C04F3049F04F5FC1
:101850002250310923303105C0F74F3009F065C0FF
:101860004FE0641681F1639445E05FC0992361F015
:1018700091502F5C3109203D3105C0F705C066202D
:1018800041F06A942551310926313105C0F76110C4
:101890000DC0992321F091505AE0652E07C0612CAC
:1018A00005C0442341F04150225031092330310515
:1018B000C0F7411110C06620E9F16A944AE0233074
:1018C0003105C8F608C059132FC02330310540F147
:1018D0004FE0A42E4FE0943018F0990F990F9950D3
:1018E000C0E14C9FA001112456294A29C92FD0E0FC
:1018F000DC2FCC27D295D07F4C2B5D2B4383548398
:1019000001C0FFCFDFEFED1AFD0A6B5F7F4F0A5F6B
:101910001F4FD3CE92E09093763E0EC083E00CC072
:101920004FE02FE0A22ED7CF4FE02330310508F053
:1019300073CFD1CF40E0CFCFDF91CF911F910F91E7
:10194000FF90EF90DF90CF90BF90AF909F908F90DF
:101950007F906F905F904F903F900895CF93DC0100
:10196000892B79F1ED91FC9111976081718140E0B3
:1019700050E020E030E090E02617370779F012962B
:10198000ED91FC911397E40FF51FC08181818C2BA1
:10199000982B2F5F3F4F4A5F5F4FEECF992399F00F
:1019A0008091763E811106C09093220681E080935B
:1019B000763E05C080912206982B9093220680E007
:1019C00003C08BE001C082E0CF910895009731F011
:1019D0008093C93E9093CA3E80E008958BE00895BD
:1019E0006115710591F1009781F12091763E2223D6
:1019F00071F1243071F18093C73E9093C83E60939B
:101A0000743E7093753E20EC20931806DC01ED9136
:101A1000FC912281203421F420911806206205C017
:101A2000203841F42091180628622093180610925D
:101A30001E0613C0213879F42091180628622093DD
:101A4000180626E820931E0608C08BE0089583E060
:101A5000089581E0089582E0089510920006DC0167
:101A6000ED91FC918481803108F080E18093030640
:101A700081E080930B0680930A068093673E109264
:101A8000773E1092783E35DD81110AC084E0809364
:101A9000763E8091773E9091783E5EDD80E00895BD
:101AA00082E08093763E08950097C9F0DC01ED91C5
:101AB000FC911197208131812617370790F045E07E
:101AC000469F9001479F300D11241496ED91FC9193
:101AD0001597E20FF31F81E0808380E008958BE08B
:101AE000089582E00895FC01892BD1F1A081B18194
:101AF0008D919C91119786179707A0F112969C9152
:101B00000480F581E02D903459F485E0869FD00162
:101B1000879FB00D1124AE0FBF1F84E392E00DC06C
:101B20009058923080F485E0869FD001879FB00D59
:101B30001124AE0FBF1F87E695E013968D939C93FB
:101B4000149780E001C082E095E0969F9001979FF6
:101B5000300D1124E20FF31F90819260908308955D
:101B60008BE0089582E008951092000640911006DF
:101B7000509111068091773E9091783E9C01220F02
:101B8000331FE091C93EF091CA3EE20FF31F40833C
:101B9000518301968093773E9093783EAADC811121
:101BA00008C084E08093763E8091773E9091783EA5
:101BB000D3CCE091743EF091753E0994AA1BBB1BF7
:101BC00051E107C0AA1FBB1FA617B70710F0A61B3D
:101BD000B70B881F991F5A95A9F780959095BC015E
:101BE000CD01089597FB072E16F4009406D077FDDB
:101BF00008D0E4DF07FC05D03EF4909581959F4F17
:101C00000895709561957F4F08958F929F92AF923E
:101C1000BF92CF92DF92EF92FF92CF93DF93EC01CE
:101C2000688179818A819B816115710581059105A2
:101C300021F464E279ED8BE597E02DE133EF41E0AB
:101C400050E03AD049015A019B01AC01A7EAB1E446
:101C50004FD06B017C01ACEEB4EFA501940154D0E0
:101C6000DC01CB018C0D9D1DAE1DBF1DB7FF03C058
:101C70000197A109B04888839983AA83BB839F7782
:101C8000DF91CF91FF90EF90DF90CF90BF90AF901A
:101C90009F908F900895B9DF089580E09EE3B5DFAF
:101CA0000895A0E0B0E08093003E9093013EA093A1
:101CB000023EB093033E0895052E97FB16F4009460
:101CC0000FD057FD05D024D007FC02D046F408C041
:101CD00050954095309521953F4F4F4F5F4F089558
:101CE00090958095709561957F4F8F4F9F4F089588
:101CF00031D0A59F900DB49F900DA49F800D911D94
:101D000011240895B7FFF4CFF3DF821B930B0895DE
:101D1000A1E21A2EAA1BBB1BFD010DC0AA1FBB1FEF
:101D2000EE1FFF1FA217B307E407F50720F0A21B61
:101D3000B30BE40BF50B661F771F881F991F1A94CE
:101D400069F760957095809590959B01AC01BD01F8
:101D5000CF010895A29FB001B39FC001A39F01D0FE
:101D6000B29F700D811D1124911D0895F894FFCF2D
:0E1D70001E2B3B4E6689C4FF3F1C0B05030172
:101D7E0001000000383E203E0000503E0000F00CF6
:101D8E000000503E00008307DF030000AE0C000091
:101D9E00863E2E3EB93E283E14010014010002007C
:101DAE0004000500140514013C3E443E00007A3E3A
:101DBE00903E8D3E0203663E4D3E010F060001022F
:101DCE00623E563E903E00040002000400080002EF
:081DDE00000402008030000146
:00000001FF
